{
  "contractName": "CourseMarketplace",
  "abi": [
    {
      "inputs": [],
      "name": "CourseHasOwner",
      "type": "error"
    },
    {
      "inputs": [],
      "name": "CourseIsNotCreated",
      "type": "error"
    },
    {
      "inputs": [],
      "name": "InvalidState",
      "type": "error"
    },
    {
      "inputs": [],
      "name": "SenderIsNotCourseOwner",
      "type": "error"
    },
    {
      "inputs": [],
      "name": "emergencyWithdraw",
      "outputs": [],
      "stateMutability": "nonpayable",
      "type": "function"
    },
    {
      "inputs": [],
      "name": "getContractOwner",
      "outputs": [
        {
          "internalType": "address",
          "name": "",
          "type": "address"
        }
      ],
      "stateMutability": "view",
      "type": "function",
      "constant": true
    },
    {
      "inputs": [],
      "name": "resumeContract",
      "outputs": [],
      "stateMutability": "nonpayable",
      "type": "function"
    },
    {
      "inputs": [],
      "name": "selfDestruct",
      "outputs": [],
      "stateMutability": "nonpayable",
      "type": "function"
    },
    {
      "inputs": [],
      "name": "stopContract",
      "outputs": [],
      "stateMutability": "nonpayable",
      "type": "function"
    },
    {
      "inputs": [
        {
          "internalType": "address",
          "name": "newOwner",
          "type": "address"
        }
      ],
      "name": "transferOwnership",
      "outputs": [],
      "stateMutability": "nonpayable",
      "type": "function"
    },
    {
      "inputs": [
        {
          "internalType": "uint256",
          "name": "amount",
          "type": "uint256"
        }
      ],
      "name": "withdraw",
      "outputs": [],
      "stateMutability": "nonpayable",
      "type": "function"
    },
    {
      "stateMutability": "payable",
      "type": "receive",
      "payable": true
    },
    {
      "inputs": [
        {
          "internalType": "bytes16",
          "name": "courseId",
          "type": "bytes16"
        },
        {
          "internalType": "bytes32",
          "name": "proof",
          "type": "bytes32"
        }
      ],
      "name": "purchaseCourse",
      "outputs": [],
      "stateMutability": "payable",
      "type": "function",
      "payable": true
    },
    {
      "inputs": [
        {
          "internalType": "bytes32",
          "name": "courseHash",
          "type": "bytes32"
        }
      ],
      "name": "repurchaseCourse",
      "outputs": [],
      "stateMutability": "payable",
      "type": "function",
      "payable": true
    },
    {
      "inputs": [
        {
          "internalType": "bytes32",
          "name": "courseHash",
          "type": "bytes32"
        }
      ],
      "name": "activateCourse",
      "outputs": [],
      "stateMutability": "nonpayable",
      "type": "function"
    },
    {
      "inputs": [
        {
          "internalType": "bytes32",
          "name": "courseHash",
          "type": "bytes32"
        }
      ],
      "name": "deactivateCourse",
      "outputs": [],
      "stateMutability": "nonpayable",
      "type": "function"
    },
    {
      "inputs": [],
      "name": "getCourseCount",
      "outputs": [
        {
          "internalType": "uint256",
          "name": "",
          "type": "uint256"
        }
      ],
      "stateMutability": "view",
      "type": "function",
      "constant": true
    },
    {
      "inputs": [
        {
          "internalType": "uint256",
          "name": "index",
          "type": "uint256"
        }
      ],
      "name": "getCourseHashAtIndex",
      "outputs": [
        {
          "internalType": "bytes32",
          "name": "",
          "type": "bytes32"
        }
      ],
      "stateMutability": "view",
      "type": "function",
      "constant": true
    },
    {
      "inputs": [
        {
          "internalType": "bytes32",
          "name": "courseHash",
          "type": "bytes32"
        }
      ],
      "name": "getCourseByHash",
      "outputs": [
        {
          "components": [
            {
              "internalType": "uint256",
              "name": "id",
              "type": "uint256"
            },
            {
              "internalType": "uint256",
              "name": "price",
              "type": "uint256"
            },
            {
              "internalType": "bytes32",
              "name": "proof",
              "type": "bytes32"
            },
            {
              "internalType": "address",
              "name": "owner",
              "type": "address"
            },
            {
              "internalType": "enum CourseMarketplace.State",
              "name": "state",
              "type": "uint8"
            }
          ],
          "internalType": "struct CourseMarketplace.Course",
          "name": "",
          "type": "tuple"
        }
      ],
      "stateMutability": "view",
      "type": "function",
      "constant": true
    }
  ],
  "bytecode": "0x608060405260008060146101000a81548160ff02191690831515021790555034801561002a57600080fd5b5061003a3361003f60201b60201c565b610082565b806000806101000a81548173ffffffffffffffffffffffffffffffffffffffff021916908373ffffffffffffffffffffffffffffffffffffffff16021790555050565b611ab4806100916000396000f3fe6080604052600436106100e15760003560e01c8063935d7e6d1161007f578063c4bc5da511610059578063c4bc5da514610282578063d76821cb14610299578063db2e21bc146102b5578063f2fde38b146102cc576100e8565b8063935d7e6d1461021757806396cfda06146102405780639cb8a26a1461026b576100e8565b8063442890d5116100bb578063442890d5146101565780636136e1eb1461018157806362e4e6ac1461019d5780636d11290b146101da576100e8565b806312253a6c146100ed5780632e1a7d4d14610104578063392625721461012d576100e8565b366100e857005b600080fd5b3480156100f957600080fd5b506101026102f5565b005b34801561011057600080fd5b5061012b600480360381019061012691906113ec565b6103a0565b005b34801561013957600080fd5b50610154600480360381019061014f919061144f565b6104ff565b005b34801561016257600080fd5b5061016b6106d3565b60405161017891906114bd565b60405180910390f35b61019b6004803603810190610196919061144f565b6106fc565b005b3480156101a957600080fd5b506101c460048036038101906101bf919061144f565b610889565b6040516101d191906115e4565b60405180910390f35b3480156101e657600080fd5b5061020160048036038101906101fc91906113ec565b610965565b60405161020e919061160e565b60405180910390f35b34801561022357600080fd5b5061023e6004803603810190610239919061144f565b610982565b005b34801561024c57600080fd5b50610255610c35565b6040516102629190611638565b60405180910390f35b34801561027757600080fd5b50610280610c3f565b005b34801561028e57600080fd5b50610297610d55565b005b6102b360048036038101906102ae91906116ab565b610dff565b005b3480156102c157600080fd5b506102ca610ff0565b005b3480156102d857600080fd5b506102f360048036038101906102ee9190611717565b61119d565b005b60008054906101000a900473ffffffffffffffffffffffffffffffffffffffff1673ffffffffffffffffffffffffffffffffffffffff163373ffffffffffffffffffffffffffffffffffffffff1614610383576040517f08c379a000000000000000000000000000000000000000000000000000000000815260040161037a906117c7565b60405180910390fd5b6001600060146101000a81548160ff021916908315150217905550565b60008054906101000a900473ffffffffffffffffffffffffffffffffffffffff1673ffffffffffffffffffffffffffffffffffffffff163373ffffffffffffffffffffffffffffffffffffffff161461042e576040517f08c379a0000000000000000000000000000000000000000000000000000000008152600401610425906117c7565b60405180910390fd5b60008060009054906101000a900473ffffffffffffffffffffffffffffffffffffffff1673ffffffffffffffffffffffffffffffffffffffff168260405161047590611818565b60006040518083038185875af1925050503d80600081146104b2576040519150601f19603f3d011682016040523d82523d6000602084013e6104b7565b606091505b50509050806104fb576040517f08c379a00000000000000000000000000000000000000000000000000000000081526004016104f290611879565b60405180910390fd5b5050565b600060149054906101000a900460ff161561054f576040517f08c379a0000000000000000000000000000000000000000000000000000000008152600401610546906118e5565b60405180910390fd5b60008054906101000a900473ffffffffffffffffffffffffffffffffffffffff1673ffffffffffffffffffffffffffffffffffffffff163373ffffffffffffffffffffffffffffffffffffffff16146105dd576040517f08c379a00000000000000000000000000000000000000000000000000000000081526004016105d4906117c7565b60405180910390fd5b6105e681611237565b61061c576040517f4db0c48300000000000000000000000000000000000000000000000000000000815260040160405180910390fd5b60006001600083815260200190815260200160002090506000600281111561064757610646611505565b5b8160030160149054906101000a900460ff16600281111561066b5761066a611505565b5b146106a2576040517fbaf3f0f700000000000000000000000000000000000000000000000000000000815260040160405180910390fd5b60018160030160146101000a81548160ff021916908360028111156106ca576106c9611505565b5b02179055505050565b60008060009054906101000a900473ffffffffffffffffffffffffffffffffffffffff16905090565b600060149054906101000a900460ff161561074c576040517f08c379a0000000000000000000000000000000000000000000000000000000008152600401610743906118e5565b60405180910390fd5b61075581611237565b61078b576040517f4db0c48300000000000000000000000000000000000000000000000000000000815260040160405180910390fd5b610794816112a6565b6107ca576040517fcce31cc400000000000000000000000000000000000000000000000000000000815260040160405180910390fd5b60006001600083815260200190815260200160002090506002808111156107f4576107f3611505565b5b8160030160149054906101000a900460ff16600281111561081857610817611505565b5b1461084f576040517fbaf3f0f700000000000000000000000000000000000000000000000000000000815260040160405180910390fd5b60008160030160146101000a81548160ff0219169083600281111561087757610876611505565b5b02179055503481600101819055505050565b610891611357565b600160008381526020019081526020016000206040518060a00160405290816000820154815260200160018201548152602001600282015481526020016003820160009054906101000a900473ffffffffffffffffffffffffffffffffffffffff1673ffffffffffffffffffffffffffffffffffffffff1673ffffffffffffffffffffffffffffffffffffffff1681526020016003820160149054906101000a900460ff16600281111561094857610947611505565b5b600281111561095a57610959611505565b5b815250509050919050565b600060026000838152602001908152602001600020549050919050565b600060149054906101000a900460ff16156109d2576040517f08c379a00000000000000000000000000000000000000000000000000000000081526004016109c9906118e5565b60405180910390fd5b60008054906101000a900473ffffffffffffffffffffffffffffffffffffffff1673ffffffffffffffffffffffffffffffffffffffff163373ffffffffffffffffffffffffffffffffffffffff1614610a60576040517f08c379a0000000000000000000000000000000000000000000000000000000008152600401610a57906117c7565b60405180910390fd5b610a6981611237565b610a9f576040517f4db0c48300000000000000000000000000000000000000000000000000000000815260040160405180910390fd5b600060016000838152602001908152602001600020905060006002811115610aca57610ac9611505565b5b8160030160149054906101000a900460ff166002811115610aee57610aed611505565b5b14610b25576040517fbaf3f0f700000000000000000000000000000000000000000000000000000000815260040160405180910390fd5b60008160030160009054906101000a900473ffffffffffffffffffffffffffffffffffffffff1673ffffffffffffffffffffffffffffffffffffffff168260010154604051610b7390611818565b60006040518083038185875af1925050503d8060008114610bb0576040519150601f19603f3d011682016040523d82523d6000602084013e610bb5565b606091505b5050905080610bf9576040517f08c379a0000000000000000000000000000000000000000000000000000000008152600401610bf090611879565b60405180910390fd5b60028260030160146101000a81548160ff02191690836002811115610c2157610c20611505565b5b021790555060008260010181905550505050565b6000600354905090565b600060149054906101000a900460ff16610c8e576040517f08c379a0000000000000000000000000000000000000000000000000000000008152600401610c8590611951565b60405180910390fd5b60008054906101000a900473ffffffffffffffffffffffffffffffffffffffff1673ffffffffffffffffffffffffffffffffffffffff163373ffffffffffffffffffffffffffffffffffffffff1614610d1c576040517f08c379a0000000000000000000000000000000000000000000000000000000008152600401610d13906117c7565b60405180910390fd5b60008054906101000a900473ffffffffffffffffffffffffffffffffffffffff1673ffffffffffffffffffffffffffffffffffffffff16ff5b60008054906101000a900473ffffffffffffffffffffffffffffffffffffffff1673ffffffffffffffffffffffffffffffffffffffff163373ffffffffffffffffffffffffffffffffffffffff1614610de3576040517f08c379a0000000000000000000000000000000000000000000000000000000008152600401610dda906117c7565b60405180910390fd5b60008060146101000a81548160ff021916908315150217905550565b600060149054906101000a900460ff1615610e4f576040517f08c379a0000000000000000000000000000000000000000000000000000000008152600401610e46906118e5565b60405180910390fd5b60008233604051602001610e649291906119da565b604051602081830303815290604052805190602001209050610e85816112a6565b15610ebc576040517fb0fc2d9700000000000000000000000000000000000000000000000000000000815260040160405180910390fd5b600060036000815480929190610ed190611a35565b9190505590508160026000838152602001908152602001600020819055506040518060a001604052808281526020013481526020018481526020013373ffffffffffffffffffffffffffffffffffffffff16815260200160006002811115610f3c57610f3b611505565b5b8152506001600084815260200190815260200160002060008201518160000155602082015181600101556040820151816002015560608201518160030160006101000a81548173ffffffffffffffffffffffffffffffffffffffff021916908373ffffffffffffffffffffffffffffffffffffffff16021790555060808201518160030160146101000a81548160ff02191690836002811115610fe257610fe1611505565b5b021790555090505050505050565b600060149054906101000a900460ff1661103f576040517f08c379a000000000000000000000000000000000000000000000000000000000815260040161103690611951565b60405180910390fd5b60008054906101000a900473ffffffffffffffffffffffffffffffffffffffff1673ffffffffffffffffffffffffffffffffffffffff163373ffffffffffffffffffffffffffffffffffffffff16146110cd576040517f08c379a00000000000000000000000000000000000000000000000000000000081526004016110c4906117c7565b60405180910390fd5b60008060009054906101000a900473ffffffffffffffffffffffffffffffffffffffff1673ffffffffffffffffffffffffffffffffffffffff164760405161111490611818565b60006040518083038185875af1925050503d8060008114611151576040519150601f19603f3d011682016040523d82523d6000602084013e611156565b606091505b505090508061119a576040517f08c379a000000000000000000000000000000000000000000000000000000000815260040161119190611879565b60405180910390fd5b50565b60008054906101000a900473ffffffffffffffffffffffffffffffffffffffff1673ffffffffffffffffffffffffffffffffffffffff163373ffffffffffffffffffffffffffffffffffffffff161461122b576040517f08c379a0000000000000000000000000000000000000000000000000000000008152600401611222906117c7565b60405180910390fd5b61123481611314565b50565b60008073ffffffffffffffffffffffffffffffffffffffff166001600084815260200190815260200160002060030160009054906101000a900473ffffffffffffffffffffffffffffffffffffffff1673ffffffffffffffffffffffffffffffffffffffff1614159050919050565b60003373ffffffffffffffffffffffffffffffffffffffff166001600084815260200190815260200160002060030160009054906101000a900473ffffffffffffffffffffffffffffffffffffffff1673ffffffffffffffffffffffffffffffffffffffff16149050919050565b806000806101000a81548173ffffffffffffffffffffffffffffffffffffffff021916908373ffffffffffffffffffffffffffffffffffffffff16021790555050565b6040518060a00160405280600081526020016000815260200160008019168152602001600073ffffffffffffffffffffffffffffffffffffffff168152602001600060028111156113ab576113aa611505565b5b81525090565b600080fd5b6000819050919050565b6113c9816113b6565b81146113d457600080fd5b50565b6000813590506113e6816113c0565b92915050565b600060208284031215611402576114016113b1565b5b6000611410848285016113d7565b91505092915050565b6000819050919050565b61142c81611419565b811461143757600080fd5b50565b60008135905061144981611423565b92915050565b600060208284031215611465576114646113b1565b5b60006114738482850161143a565b91505092915050565b600073ffffffffffffffffffffffffffffffffffffffff82169050919050565b60006114a78261147c565b9050919050565b6114b78161149c565b82525050565b60006020820190506114d260008301846114ae565b92915050565b6114e1816113b6565b82525050565b6114f081611419565b82525050565b6114ff8161149c565b82525050565b7f4e487b7100000000000000000000000000000000000000000000000000000000600052602160045260246000fd5b6003811061154557611544611505565b5b50565b600081905061155682611534565b919050565b600061156682611548565b9050919050565b6115768161155b565b82525050565b60a08201600082015161159260008501826114d8565b5060208201516115a560208501826114d8565b5060408201516115b860408501826114e7565b5060608201516115cb60608501826114f6565b5060808201516115de608085018261156d565b50505050565b600060a0820190506115f9600083018461157c565b92915050565b61160881611419565b82525050565b600060208201905061162360008301846115ff565b92915050565b611632816113b6565b82525050565b600060208201905061164d6000830184611629565b92915050565b60007fffffffffffffffffffffffffffffffff0000000000000000000000000000000082169050919050565b61168881611653565b811461169357600080fd5b50565b6000813590506116a58161167f565b92915050565b600080604083850312156116c2576116c16113b1565b5b60006116d085828601611696565b92505060206116e18582860161143a565b9150509250929050565b6116f48161149c565b81146116ff57600080fd5b50565b600081359050611711816116eb565b92915050565b60006020828403121561172d5761172c6113b1565b5b600061173b84828501611702565b91505092915050565b600082825260208201905092915050565b7f6f6e6c79206f776e65722063616e2063616c6c20746869732066756e6374696f60008201527f6e00000000000000000000000000000000000000000000000000000000000000602082015250565b60006117b1602183611744565b91506117bc82611755565b604082019050919050565b600060208201905081810360008301526117e0816117a4565b9050919050565b600081905092915050565b50565b60006118026000836117e7565b915061180d826117f2565b600082019050919050565b6000611823826117f5565b9150819050919050565b7f5472616e73666572206661696c65640000000000000000000000000000000000600082015250565b6000611863600f83611744565b915061186e8261182d565b602082019050919050565b6000602082019050818103600083015261189281611856565b9050919050565b7f636f6e74726163742069732073746f7070656400000000000000000000000000600082015250565b60006118cf601383611744565b91506118da82611899565b602082019050919050565b600060208201905081810360008301526118fe816118c2565b9050919050565b7f636f6e7472616374206973206e6f742073746f70706564000000000000000000600082015250565b600061193b601783611744565b915061194682611905565b602082019050919050565b6000602082019050818103600083015261196a8161192e565b9050919050565b6000819050919050565b61198c61198782611653565b611971565b82525050565b60008160601b9050919050565b60006119aa82611992565b9050919050565b60006119bc8261199f565b9050919050565b6119d46119cf8261149c565b6119b1565b82525050565b60006119e6828561197b565b6010820191506119f682846119c3565b6014820191508190509392505050565b7f4e487b7100000000000000000000000000000000000000000000000000000000600052601160045260246000fd5b6000611a40826113b6565b91507fffffffffffffffffffffffffffffffffffffffffffffffffffffffffffffffff821415611a7357611a72611a06565b5b60018201905091905056fea2646970667358221220e18057fd06e38115866335fb0296a5e8799b1e1ab782db6f2f6c988dedfe6dae64736f6c634300080c0033",
  "immutableReferences": {},
  "source": "// SPDX-License-Identifier: MIT\npragma solidity >=0.4.22 <0.9.0;\n\nimport \"./Owned.sol\";\n\ncontract CourseMarketplace is Owned {\n  enum State {\n    Purchased,\n    Activated,\n    Deactivated\n  }\n\n  struct Course {\n    uint256 id; //32\n    uint256 price; // 32\n    bytes32 proof; //32\n    address owner; //20\n    State state; // 1\n  }\n\n  mapping(bytes32 => Course) private ownedCourses;\n\n  mapping(uint256 => bytes32) private ownedCourseHash;\n\n  uint256 private totalOwnedCourses;\n\n  /// Sender is not course owner\n  error SenderIsNotCourseOwner();\n\n  /// Course has already a Owner!\n  error CourseHasOwner();\n  \n  /// Course has invalid state\n  error InvalidState();\n\n  /// Course is not created\n  error CourseIsNotCreated(); \n\n  receive() external payable {}\n\n  function purchaseCourse(\n    bytes16 courseId, // 0x00000000000000000000000000003130\n    bytes32 proof // 0x0000000000000000000000000000313000000000000000000000000000003130\n  ) external payable onlyWhenNotStopped {\n    bytes32 courseHash = keccak256(abi.encodePacked(courseId, msg.sender));\n\n    if (hasCourseOwnership(courseHash)) {\n      revert CourseHasOwner();\n    }\n\n    uint256 id = totalOwnedCourses++;\n    ownedCourseHash[id] = courseHash;\n    ownedCourses[courseHash] = Course({\n      id: id,\n      price: msg.value,\n      proof: proof,\n      owner: msg.sender,\n      state: State.Purchased\n    });\n  }\n\n  function repurchaseCourse(bytes32 courseHash)\n    external payable onlyWhenNotStopped\n  {\n    if (!isCourseCreated(courseHash)) {\n      revert CourseIsNotCreated();\n    }\n\n    if (!hasCourseOwnership(courseHash)) {\n      revert SenderIsNotCourseOwner();\n    }\n\n    Course storage course = ownedCourses[courseHash];\n\n    if (course.state != State.Deactivated) {\n      revert InvalidState();\n    }\n\n    course.state = State.Purchased;\n    course.price = msg.value;\n  }\n\n  function activateCourse(\n    bytes32 courseHash\n  ) external onlyWhenNotStopped onlyOwner {\n    if (!isCourseCreated(courseHash)) {\n      revert CourseIsNotCreated();\n    }\n    \n    Course storage course = ownedCourses[courseHash];\n\n    if (course.state != State.Purchased) {\n      revert InvalidState();\n    }\n\n    course.state = State.Activated;\n  }\n\n  function deactivateCourse(\n    bytes32 courseHash\n  ) external onlyWhenNotStopped onlyOwner {\n    if (!isCourseCreated(courseHash)) {\n      revert CourseIsNotCreated();\n    }\n    \n    Course storage course = ownedCourses[courseHash];\n\n    if (course.state != State.Purchased) {\n      revert InvalidState();\n    }\n\n    (bool success, ) = course.owner.call{value: course.price}(\"\");\n    require(success, \"Transfer failed\");\n\n    course.state = State.Deactivated;\n    course.price = 0;\n  }\n\n\n  function getCourseCount() external view returns (uint256) {\n    return totalOwnedCourses;\n  }\n\n  function getCourseHashAtIndex(uint256 index)\n    external\n    view\n    returns (bytes32)\n  {\n    return ownedCourseHash[index];\n  }\n\n  function getCourseByHash(bytes32 courseHash)\n    external\n    view\n    returns (Course memory)\n  {\n    return ownedCourses[courseHash];\n  }\n\n  function hasCourseOwnership(bytes32 courseHash)\n    private\n    view\n    returns (bool)\n  {\n    return ownedCourses[courseHash].owner == msg.sender;\n  }\n\n  function isCourseCreated(\n    bytes32 courseHash\n  ) private \n    view\n    returns (bool) {\n    return ownedCourses[courseHash].owner != 0x0000000000000000000000000000000000000000;\n  }\n}\n",
  "sourcePath": "/app/contracts/CourseMarketplace.sol",
  "compiler": {
    "name": "solc",
    "version": "0.8.12+commit.f00d7308.Emscripten.clang"
  },
  "schemaVersion": "3.4.10",
  "updatedAt": "2022-09-23T13:03:50.189Z",
  "networkType": "ethereum",
  "devdoc": {
    "kind": "dev",
    "methods": {},
    "version": 1
  },
  "userdoc": {
    "errors": {
      "CourseHasOwner()": [
        {
          "notice": "Course has already a Owner!"
        }
      ],
      "CourseIsNotCreated()": [
        {
          "notice": "Course is not created"
        }
      ],
      "InvalidState()": [
        {
          "notice": "Course has invalid state"
        }
      ],
      "SenderIsNotCourseOwner()": [
        {
          "notice": "Sender is not course owner"
        }
      ]
    },
    "kind": "user",
    "methods": {},
    "version": 1
  }
}