{
  "contractName": "Owned",
  "abi": [
    {
      "inputs": [],
      "stateMutability": "nonpayable",
      "type": "constructor"
    },
    {
      "inputs": [
        {
          "internalType": "uint256",
          "name": "amount",
          "type": "uint256"
        }
      ],
      "name": "withdraw",
      "outputs": [],
      "stateMutability": "nonpayable",
      "type": "function"
    },
    {
      "inputs": [],
      "name": "emergencyWithdraw",
      "outputs": [],
      "stateMutability": "nonpayable",
      "type": "function"
    },
    {
      "inputs": [],
      "name": "selfDestruct",
      "outputs": [],
      "stateMutability": "nonpayable",
      "type": "function"
    },
    {
      "inputs": [],
      "name": "stopContract",
      "outputs": [],
      "stateMutability": "nonpayable",
      "type": "function"
    },
    {
      "inputs": [],
      "name": "resumeContract",
      "outputs": [],
      "stateMutability": "nonpayable",
      "type": "function"
    },
    {
      "inputs": [
        {
          "internalType": "address",
          "name": "newOwner",
          "type": "address"
        }
      ],
      "name": "transferOwnership",
      "outputs": [],
      "stateMutability": "nonpayable",
      "type": "function"
    },
    {
      "inputs": [],
      "name": "getContractOwner",
      "outputs": [
        {
          "internalType": "address",
          "name": "",
          "type": "address"
        }
      ],
      "stateMutability": "view",
      "type": "function"
    }
  ],
  "bytecode": "0x608060405260008060146101000a81548160ff02191690831515021790555034801561002a57600080fd5b5061003a3361003f60201b60201c565b610082565b806000806101000a81548173ffffffffffffffffffffffffffffffffffffffff021916908373ffffffffffffffffffffffffffffffffffffffff16021790555050565b610a91806100916000396000f3fe608060405234801561001057600080fd5b506004361061007d5760003560e01c80639cb8a26a1161005b5780639cb8a26a146100c6578063c4bc5da5146100d0578063db2e21bc146100da578063f2fde38b146100e45761007d565b806312253a6c146100825780632e1a7d4d1461008c578063442890d5146100a8575b600080fd5b61008a610100565b005b6100a660048036038101906100a191906107b8565b6101ab565b005b6100b061030a565b6040516100bd9190610826565b60405180910390f35b6100ce610333565b005b6100d8610449565b005b6100e26104f3565b005b6100fe60048036038101906100f9919061086d565b6106a0565b005b60008054906101000a900473ffffffffffffffffffffffffffffffffffffffff1673ffffffffffffffffffffffffffffffffffffffff163373ffffffffffffffffffffffffffffffffffffffff161461018e576040517f08c379a00000000000000000000000000000000000000000000000000000000081526004016101859061091d565b60405180910390fd5b6001600060146101000a81548160ff021916908315150217905550565b60008054906101000a900473ffffffffffffffffffffffffffffffffffffffff1673ffffffffffffffffffffffffffffffffffffffff163373ffffffffffffffffffffffffffffffffffffffff1614610239576040517f08c379a00000000000000000000000000000000000000000000000000000000081526004016102309061091d565b60405180910390fd5b60008060009054906101000a900473ffffffffffffffffffffffffffffffffffffffff1673ffffffffffffffffffffffffffffffffffffffff16826040516102809061096e565b60006040518083038185875af1925050503d80600081146102bd576040519150601f19603f3d011682016040523d82523d6000602084013e6102c2565b606091505b5050905080610306576040517f08c379a00000000000000000000000000000000000000000000000000000000081526004016102fd906109cf565b60405180910390fd5b5050565b60008060009054906101000a900473ffffffffffffffffffffffffffffffffffffffff16905090565b600060149054906101000a900460ff16610382576040517f08c379a000000000000000000000000000000000000000000000000000000000815260040161037990610a3b565b60405180910390fd5b60008054906101000a900473ffffffffffffffffffffffffffffffffffffffff1673ffffffffffffffffffffffffffffffffffffffff163373ffffffffffffffffffffffffffffffffffffffff1614610410576040517f08c379a00000000000000000000000000000000000000000000000000000000081526004016104079061091d565b60405180910390fd5b60008054906101000a900473ffffffffffffffffffffffffffffffffffffffff1673ffffffffffffffffffffffffffffffffffffffff16ff5b60008054906101000a900473ffffffffffffffffffffffffffffffffffffffff1673ffffffffffffffffffffffffffffffffffffffff163373ffffffffffffffffffffffffffffffffffffffff16146104d7576040517f08c379a00000000000000000000000000000000000000000000000000000000081526004016104ce9061091d565b60405180910390fd5b60008060146101000a81548160ff021916908315150217905550565b600060149054906101000a900460ff16610542576040517f08c379a000000000000000000000000000000000000000000000000000000000815260040161053990610a3b565b60405180910390fd5b60008054906101000a900473ffffffffffffffffffffffffffffffffffffffff1673ffffffffffffffffffffffffffffffffffffffff163373ffffffffffffffffffffffffffffffffffffffff16146105d0576040517f08c379a00000000000000000000000000000000000000000000000000000000081526004016105c79061091d565b60405180910390fd5b60008060009054906101000a900473ffffffffffffffffffffffffffffffffffffffff1673ffffffffffffffffffffffffffffffffffffffff16476040516106179061096e565b60006040518083038185875af1925050503d8060008114610654576040519150601f19603f3d011682016040523d82523d6000602084013e610659565b606091505b505090508061069d576040517f08c379a0000000000000000000000000000000000000000000000000000000008152600401610694906109cf565b60405180910390fd5b50565b60008054906101000a900473ffffffffffffffffffffffffffffffffffffffff1673ffffffffffffffffffffffffffffffffffffffff163373ffffffffffffffffffffffffffffffffffffffff161461072e576040517f08c379a00000000000000000000000000000000000000000000000000000000081526004016107259061091d565b60405180910390fd5b6107378161073a565b50565b806000806101000a81548173ffffffffffffffffffffffffffffffffffffffff021916908373ffffffffffffffffffffffffffffffffffffffff16021790555050565b600080fd5b6000819050919050565b61079581610782565b81146107a057600080fd5b50565b6000813590506107b28161078c565b92915050565b6000602082840312156107ce576107cd61077d565b5b60006107dc848285016107a3565b91505092915050565b600073ffffffffffffffffffffffffffffffffffffffff82169050919050565b6000610810826107e5565b9050919050565b61082081610805565b82525050565b600060208201905061083b6000830184610817565b92915050565b61084a81610805565b811461085557600080fd5b50565b60008135905061086781610841565b92915050565b6000602082840312156108835761088261077d565b5b600061089184828501610858565b91505092915050565b600082825260208201905092915050565b7f6f6e6c79206f776e65722063616e2063616c6c20746869732066756e6374696f60008201527f6e00000000000000000000000000000000000000000000000000000000000000602082015250565b600061090760218361089a565b9150610912826108ab565b604082019050919050565b60006020820190508181036000830152610936816108fa565b9050919050565b600081905092915050565b50565b600061095860008361093d565b915061096382610948565b600082019050919050565b60006109798261094b565b9150819050919050565b7f5472616e73666572206661696c65640000000000000000000000000000000000600082015250565b60006109b9600f8361089a565b91506109c482610983565b602082019050919050565b600060208201905081810360008301526109e8816109ac565b9050919050565b7f636f6e7472616374206973206e6f742073746f70706564000000000000000000600082015250565b6000610a2560178361089a565b9150610a30826109ef565b602082019050919050565b60006020820190508181036000830152610a5481610a18565b905091905056fea264697066735822122081496481a679de6b3ec12191246165b4432ae8cea01927c7ad4900f6900c22ce64736f6c634300080c0033",
  "immutableReferences": {},
  "source": "// SPDX-License-Identifier: MIT\npragma solidity >=0.4.22 <0.9.0;\n\ncontract Owned {\n  address payable private owner;\n  bool private isStopped = false;\n\n  constructor() {\n    setContractOwner(msg.sender);\n  }\n\n  modifier onlyOwner() {\n    require(\n      msg.sender == owner,\n      \"only owner can call this function\"\n    );\n    _;\n  }\n\n  modifier onlyWhenNotStopped {\n    require(\n      !isStopped,\n      \"contract is stopped\"\n    );\n    _;\n  }\n\n  modifier onlyWhenStopped {\n    require(\n      isStopped,\n      \"contract is not stopped\"\n    );\n    _;\n  }\n\n  function withdraw(uint amount)\n    external onlyOwner\n  {\n    (bool success, ) = owner.call{value: amount}(\"\");\n    require(success, \"Transfer failed\");\n  }\n\n  function emergencyWithdraw()\n    external onlyWhenStopped onlyOwner \n  {\n    (bool success, ) = owner.call{value: address(this).balance}(\"\");\n    require(success, \"Transfer failed\");\n  }\n\n  function selfDestruct()\n    external onlyWhenStopped onlyOwner\n  {\n    selfdestruct(owner);\n  }\n\n  function stopContract() \n    external \n    onlyOwner \n  {\n    isStopped = true;\n  }\n\n  function resumeContract()\n    external\n    onlyOwner\n  {\n    isStopped = false;\n  }\n\n  function transferOwnership(address newOwner) \n    external \n    onlyOwner \n  {\n    setContractOwner(newOwner);\n  }\n\n  function getContractOwner() \n    public \n    view \n    returns (address) \n  {\n    return owner;\n  }\n\n  function setContractOwner(address newOwner) \n    private\n  {\n    owner = payable(newOwner);\n  }\n}\n",
  "sourcePath": "/app/contracts/Owned.sol",
  "compiler": {
    "name": "solc",
    "version": "0.8.12+commit.f00d7308.Emscripten.clang"
  },
  "schemaVersion": "3.4.9",
  "updatedAt": "2022-09-23T04:07:00.311Z",
  "devdoc": {
    "kind": "dev",
    "methods": {},
    "version": 1
  },
  "userdoc": {
    "kind": "user",
    "methods": {},
    "version": 1
  }
}